:1000000000000220B1630100D9630100DB6301003D
:10001000DD630100DF630100E16301000000000017
:10002000000000000000000000000000E363010089
:10003000E563010000000000E7630100E9630100DF
:10004000EB630100EB6301005162010015620100E6
:1000500029620100EB630100F9520100096A010005
:10006000ED5D0100F55D0100FD5D0100EB63010048
:10007000EB630100EB630100EB630100EB63010044
:10008000EB630100EB630100EB630100EB63010034
:10009000EB630100EB630100EB630100EB63010024
:1000A000EB630100EB630100055E01000D5E0100E2
:1000B000EB630100EB6301000000000000000000A2
:1000C000EB630100EB630100EB6301003D620100A3
:1000D000EB630100EB630100EB630100EB630100E4
:1000E0007962010000000000000000000000000034
:1000F00000000000EB6301000000000065620100E9
:1001000000000000000000000000000000000000EF
:1001100000000000000000000000000000000000DF
:1001200000000000000000000000000000000000CF
:1001300000000000000000000000000000000000BF
:1001400000000000000000000000000000000000AF
:10015000000000000000000000000000000000009F
:10016000000000000000000000000000000000008F
:10017000000000000000000000000000000000007F
:10018000000000000000000000000000000000006F
:10019000000000000000000000000000000000005F
:1001A000000000000000000000000000000000004F
:1001B000000000000000000000000000000000003F
:1001C000000000000000000000000000000000002F
:1001D000000000000000000000000000000000001F
:1001E000000000000000000000000000000000000F
:1001F00000000000000000000000000000000000FF
:100200007CB0EE877CB0EE87FF00FF00FF00FF00B0
:10021000FF00FF00FF00FF00FF00FF00FF00FF00E6
:10022000FF00FF00FF00FF00FF00FF00FF00FF00D6
:10023000FF00FF00FF00FF002DE9F04F85B00391A4
:100240000778A7F10903042B044607F07F0200F1A9
:100250000100F5D9202AF3D02B2F04BF677804467C
:100260002D2F75D09FED427B8DED007B4FF0000868
:100270004FF000099FB34FF0000C25464FF0000AE5
:10028000DFF8FCB0644619E019F00CFB80468946A3
:10029000304619F09DFA42464B4619F04DF9524648
:1002A000804689465B46DDE900013CB319F024FC39
:1002B000CDE90001A44615F8017F7FB1A7F1300612
:1002C000092E52465B4640464946DDD9CCB92E2F11
:1002D00017D115F8017F0124002FEFD12C4642469B
:1002E0004B46DDE9000119F0DDFA80468946039BA3
:1002F000404649461C6005B0BDE8F08F4FF0010C48
:10030000D9E72C46BCF1000F29D042464B46DDE927
:10031000000119F0C7FA07F0DF07452F804689462C
:10032000E5D10399681C0A2219F0EAF8144902463B
:10033000002019F017FE02460B464046494619F0C8
:10034000B1FA804689464046494605B0BDE8F08F7F
:100350009FED097B67788DED007B013486E7DFF840
:1003600024904FF000084046494605B0BDE8F08FA4
:10037000000000000000F03F000000000000F0BF9F
:10038000000024400000F87F2DE9F04700231446C8
:1003900000228046894619F0F7FC28B109F1004394
:1003A00099462D23237001340022002340464946FC
:1003B00019F0E0FC28B13022002322706370BDE800
:1003C000F0874046494617F059FC19F01BFD73A30E
:1003D000D3E9002307464946404619F0D5FC0028DA
:1003E0004ED170A3D3E900234046494619F0EAFCF8
:1003F000002845D10E2F07F1010540F3B980A7F180
:100400000E0632460020624919F0ACFD02460B464A
:100410004046494619F070FB00225E4B19F08CF8FB
:1004200019F0DCFD002DA7F10F0E4FF0010C4DDD92
:10043000594FDFF87881012245F6F3294FF02E0A53
:10044000494508BF40454FF030030AD3B0EB0800E0
:1004500061EB0901494508BF404503F10103F5D2AD
:10046000DBB2237050EA010304F101084AD195423E
:1004700052DD0132102A4FD0444677E90289DFE786
:10048000002F33DB3A460020414919F06BFD02464C
:100490000B464046494619F02FFB3BA3D3E9002306
:1004A00080468946012500264046494619F0FAF95A
:1004B0000022384B19F040F819F090FD002DBC4691
:1004C0004FF0FF3E37464FF00006B1DC23463022A6
:1004D0004FF02E0803F8022B84F80180FC4345D02E
:1004E0001C4403F8012BA342FBD1A1E77A42002070
:1004F000274919F037FD02460B464046494619F098
:10050000D1F9CAE7954202F1010204BF84F801A0C3
:1005100004F10208102AAFD16EB14246302102F830
:10052000011BC2F1010373444344002BF7DC2EEAA4
:10053000EE7301339844BCF1010F12D0BCF1000FEF
:100540004FF0650388F80030C5BF2B2388F80130D1
:1005500008F1010108F102016046BDE8F0470FF023
:10056000BFBE002388F80030BDE8F0871C465FE777
:10057000C7F10E020020064919F0F4FC3E4602467F
:100580000B46012790E700BF0000901EC4BCD64276
:10059000000024400000E03F50AB01008DEDB5A00D
:1005A000F7C6B03E50EFE2D6E41A4B4400407A1052
:1005B00070B54FF0FF3006F05BF904466FF07F40F6
:1005C00006F056F90646204619F0F2F800220C4BC8
:1005D00019F068F9044630460D4619F0E9F806A30B
:1005E000D3E9002319F088FA02460B462046294633
:1005F00018F0A2FF70BD00BF0000E0DFFFFF6F43F7
:100600000000F03D000000002DE9F04F2DED028BC1
:10061000044683B0C06819F0DBF88046206989463B
:1006200019F0D6F8824660698B4619F0D1F8024677
:1006300001F1004306460F464046494617F0D2F9FD
:1006400019F028FCE062054617F084F8019028466E
:1006500017F034F8019B0546184619F0CBF84246CE
:100660004B4619F01FF980462846894619F0C2F812
:1006700032463B4619F016F902460B4640464946BB
:1006800018F058FF02460B465046594617F0AAF993
:1006900019F000FC002208EE100A0023304639460B
:1006A00019F090FB28B3B5EEC08AF1EE10FA1CDD0C
:1006B00011A7D7E9006718EE100A19F09BF8024657
:1006C0000B463046394618F035FF32463B4618F0A7
:1006D00033FF19F0DFFBA062E38843F00203E380FD
:1006E00003B0BDEC028BBDE8F08F05A7D7E900672A
:1006F000E1E784ED0A8AEFE7EA2E4454FB21F93F53
:10070000EA2E4454FB21F9BF08B511F0DDF8DFED06
:100710000C7A07EE100A67EE277A17EE900A19F0A6
:1007200069F805A3D3E9002319F0E6F919F06AFB8B
:1007300008BD00BFAFF30080EA2E4454FB211940EE
:100740000000B4430000000008B511F0D1F8DFED5F
:100750000C7A07EE100A67EE277A17EE900A19F066
:1007600049F805A3D3E9002319F0C6F919F04AFBAB
:1007700008BD00BFAFF30080EA2E4454FB211940AE
:100780000000B44300000000494A21F000439342B6
:100790002DE9704304460D4649DC464A93420E4615
:1007A0000EDC3FA3D3E9002318F0C6FE0022424B23
:1007B00019F008FB00284AD020462946BDE870837E
:1007C0003E4A934239DCB3F1804F40DD16F064FEBF
:1007D0002246804689462B462046294619F062F873
:1007E0000022354B18F0A8FE17F06CFD42464B4630
:1007F00018F0A2FE02460B4600202F4919F07CF9A2
:10080000424604460D464B464046494618F094FE83
:1008100002460B462046294618F08EFE02F040F8AC
:10082000002E08DC01F100431946BDE87083024642
:100830000B4618F081FEBDE8708316F02DFE02F025
:100840002FF819A3D3E9002318F076FEE8E7224633
:100850002B462046294619F025F880468946204631
:10086000294616F019FE002204460D46124B40465A
:10087000494618F061FE17F025FD00220E4B18F0D6
:100880005BFE02460B464046494619F035F92246C2
:100890002B4618F051FE00F0A7FAC1E7AFF3008035
:1008A0009C7500883CE4377EEF39FAFE422EE63F25
:1008B000FFFFEF7FFFFF2F3E0000F03F0000B04141
:1008C0002DE9F84FBE4B21F000469E4204460D46EE
:1008D0008A460EDDBB4B9E4200F3B18000F0AC8037
:1008E000BAF1000F40F3EA8099A1D1E90001BDE817
:1008F000F88FB54B9E4200F3BA80A3F1DE739E429F
:1009000040F3A5804FF0FF3B22462B462046294668
:1009100018F0C8FF02460B468046894618F0C2FF11
:100920008DA3D3E9002306460F4618F0BBFF8CA326
:10093000D3E9002318F000FE32463B4618F0B2FF20
:1009400089A3D3E9002318F0F7FD32463B4618F09F
:10095000A9FF87A3D3E9002318F0EEFD32463B46FA
:1009600018F0A0FF84A3D3E9002318F0E5FD324678
:100970003B4618F097FF82A3D3E9002318F0DCFD73
:1009800042464B4618F08EFF7FA3D3E900238046F2
:1009900089463046394618F085FF7DA3D3E9002308
:1009A00018F0C8FD32463B4618F07CFF7AA3D3E925
:1009B000002318F0BFFD32463B4618F073FF78A3C2
:1009C000D3E9002318F0B6FD32463B4618F06AFF23
:1009D00075A3D3E9002318F0ADFD32463B4618F06D
:1009E00061FF02460B464046494618F0A5FD2246E7
:1009F0002B4618F057FFBBF1FF3F02460B4661D074
:100A0000724B734E4FEACB0B5B44D3E9002318F0D3
:100A100091FD22462B4618F08DFDB34402460B464D
:100A2000DBE9000118F086FDBAF1000F0DDA01F1E3
:100A300000431946BDE8F88F00283FF451AF224625
:100A40002B462046294618F077FDBDE8F88F58A3BD
:100A5000D3E9002318F070FD00225E4B19F0B2F9C3
:100A600000283FF44FAF20462946BDE8F88F16F026
:100A700013FD594B9E4204460D4629DCA3F5502335
:100A80009E424EDC02460B4618F056FD0022514BAA
:100A900018F050FD002206460F464FF080432046D6
:100AA000294618F049FD02460B463046394619F0F2
:100AB00023F84FF0000B04460D4625E73EA1D1E98F
:100AC0000001C2E72046294618F034FDBDE8F88F42
:100AD000424B9E421ADC0022414B18F02BFD0022B3
:100AE00006460F463E4B2046294618F0DBFE002204
:100AF000384B18F021FD02460B463046394618F0B7
:100B0000FBFF4FF0020B04460D46FDE602460B4686
:100B10000020344918F0F0FF4FF0030B04460D4657
:100B2000F2E600222B4B18F005FD002206460F4688
:100B3000284B2046294618F0FFFC02460B4630465B
:100B4000394618F0D9FF4FF0010B04460D46DBE69D
:100B5000182D4454FB21F93F11DA22E33AAD903FBE
:100B6000EB0D76244B7BA93F513DD0A0660DB13FE4
:100B70006E204CC5CD45B73FFF8300922449C23F4C
:100B80000D5555555555D53F2F6C6A2C44B4A2BF11
:100B90009AFDDE522DDEAD3F6D9A74AFF2B0B33FD9
:100BA000711623FEC671BC3FC4EB98999999C93F51
:100BB0009C7500883CE4377E182D4454FB21F9BF16
:100BC000FFFF0F440000F07FFFFFDB3F78AB010029
:100BD00058AB01000000F03FFFFFF23FFF7F0340F2
:100BE0000000F83F0000F0BF2DE9F041C1F30A57C3
:100BF000A7F2FF35132D02460B460C4688460646E3
:100C000020DC002D4ADB364F2F4101EA070C5CEA5D
:100C1000000C1CD030A3D3E9002318F08DFC002277
:100C2000002319F0CFF848B1002C04DD4FF48013F5
:100C300043FA05F5A84428EA070400262146304671
:100C4000BDE8F081332D06DDB5F5806F38D0104654
:100C50001946BDE8F081A7F213474FF0FF3C2CFA8C
:100C600007F70742F3D01CA3D3E9002318F064FC74
:100C70000022002319F0A6F80028DFD0002C09DD9F
:100C8000142D22D00123C5F1340503FA05F5AE1960
:100C900028BF984426EA07064446CFE70EA3D3E9C7
:100CA000002318F049FC0022002319F08BF80028DB
:100CB000C4D0002C0CDB264305D00026094CBDE730
:100CC00018F03AFCC5E73446B8E704F10108E1E75B
:100CD00000264FF00044B1E79C7500883CE4377E65
:100CE000FFFF0F000000F03F2DE9F041C1F30A576C
:100CF000A7F2FF35132D02460B460C4688460646E2
:100D00001DDC002D3CDB364F2F4101EA070C5CEA6D
:100D1000000C19D030A3D3E9002318F00DFC0022F9
:100D2000002319F04FF8C8B3002C04DA4FF48013F5
:100D300043FA05F5A84428EA070400262EE0332DDF
:100D400006DDB5F5806F2DD010461946BDE8F0815F
:100D5000A7F213474FF0FF3C2CFA07F70742F3D0F6
:100D60001DA3D3E9002318F0E7FB0022002319F0AC
:100D700029F898B1002C21DB26EA070644460DE04D
:100D800015A3D3E9002318F0D7FB0022002319F0A4
:100D900019F818B1002C08DB0026344621463046ED
:100DA000BDE8F08118F0C8FBD0E724F000430D4AFD
:100DB0001E43002E18BF14460026EFE7142D08D05E
:100DC0000123C5F1340503FA05F5AE1928BF98448F
:100DD000D2E704F10108CFE79C7500883CE4377E38
:100DE000FFFF0F000000F0BF2DE9F04FD84B9942F4
:100DF00087B08046894643DDD64B99420E4600F3C4
:100E0000F480D54B994240F32D819FEDBB7B8DED56
:100E1000047B4FEA215A0446AAF2FF3ACF4BC6F3AD
:100E200013069E4246F07F5500F3128145F44015AB
:100E3000204629460022CA4B18F07CFB00220446BB
:100E40000D46C84B18F02EFD22462B4618F02AFD01
:100E5000A046CDE90201A946CDE90001002E3AD114
:100E6000002200232046294618F084FF002800F0C5
:100E70001B81BAF1000F40F0858100200021B8E00D
:100E8000B94B21F000449C420A460FDD0022B74BCB
:100E900018F070FF002800F0AF800022002300202F
:100EA000B34918F029FE07B0BDE8F08FB14B9C4262
:100EB00040F3AF80B04B1A449A4240F2D3800022F4
:100EC000A84B18F0EFFC42464B4618F0EBFCCDE97E
:100ED00000014FF0000A00224FF08043404649468F
:100EE00018F02AFB02460B464046494618F004FE1D
:100EF00002460B4606460F4618F0D4FC80A3D3E901
:100F0000002304460D4618F0CDFC7FA3D3E900234F
:100F100018F012FB22462B4618F0C4FC7CA3D3E940
:100F2000002318F009FB22462B4618F0BBFC7AA3DD
:100F3000D3E9002318F000FB22462B4618F0B2FC40
:100F400077A3D3E9002318F0F7FA22462B4618F0CE
:100F5000A9FC75A3D3E9002318F0EEFA22462B462C
:100F600018F0A0FC72A3D3E9002318F0E5FA22469A
:100F70002B4618F097FCDDE9002318F0DDFA324625
:100F80003B4618F08FFC04460D46BAF1000F00F006
:100F9000A880504618F01CFC67A3D3E900238246C2
:100FA0008B4618F07FFC66A3D3E9002306460F4664
:100FB0005046594618F076FCDDE9042318F0BCFAD7
:100FC00022462B4618F0B8FA02460B46DDE900012E
:100FD00018F0B0FA42464B4618F0ACFA02460B46FF
:100FE0003046394618F0A6FA03E002460B4618F0E0
:100FF000A3FA07B0BDE8F08F42464B46404649464B
:1010000018F098FA02460B4618F076FD07B0BDE8D6
:10101000F08F0022594B18F08FFA0022002318F0AD
:10102000D1FE10B1564B9C4262DD42464B464046D3
:10103000494618F037FC00224A4B18F033FC0246B0
:101040000B464046494618F075FA07B0BDE8F08FE8
:1010500045F40015C6F5801620462946B6100AF15B
:10106000010AE7E600223E4B4046494618F064FA82
:101070004FEA215AAAF2FF3ABAF1000F04460D4690
:101080000E4640F3BD8042464B4618F053FA0246E6
:101090000B460020324918F04DFA22462B4618F034
:1010A0002BFDCDE90401B9E627A3D3E900232046AF
:1010B000294618F0F7FB02460B460020284918F095
:1010C00039FADDE9022318F0EDFB06460F46BAF1C6
:1010D000000F75D102460B462046294618F02AFA21
:1010E00087E702460B46DDE9000118F023FAA6E780
:1010F000404649467DE700BF0000000000000000B8
:1011000044523EDF12F1C23F9FC678D0099AC33FD6
:10111000DE03CB966446C73FAF788E1DC571CC3FCA
:10112000599322942449D23F04FA97999999D93F27
:10113000935555555555E53F0000E0FE422EE63FDC
:10114000763C7935EF39EA3D555555555555E53FCE
:101150007982DA3FFFFFEF7FFFFF3F439DA006004C
:101160000000F03F0000E03FFFFFEF3F0000F0BF56
:10117000000050C3FFFF1F3E3C412D400000504384
:10118000FFFF8F3C504618F023FB24A3D3E9002334
:1011900006460F4618F086FBDDE9042318F0CCF96B
:1011A00020A3D3E9002304460D463046394618F003
:1011B00079FB02460B462046294618F0BDF918E790
:1011C000504618F005FB17A3D3E9002382468B464F
:1011D00018F068FB11A3D3E90023804689465046E6
:1011E000594618F05FFBDDE9042318F0A5F9024623
:1011F0000B463046394618F09DF922462B4674E7D7
:101200000022054B18F096F902460B464046494627
:1012100018F090F941E700BF0000F03F763C7935C7
:10122000EF39EA3D0000E0FE422EE63F00000000FC
:1012300008B516F0A5FC04A3D3E9002318F05CFC64
:1012400008BD00BFAFF30080EF39FAFE422EE63F43
:101250002DE9F043DFF8B4808BB004460D4601F071
:10126000F7F898F90030013306460F462CD0224695
:101270002B462046294618F0AFFD814620BB20466C
:10128000294616F009F91FA3D3E9002318F09AFDA7
:10129000D0B1194A98F90030CDF820900321CDE95A
:1012A0000445CDE90245CDE9001293B11349002070
:1012B000022BCDE9060111D118F0CAF822230360F0
:1012C000089B9BB9DDE90667304639460BB0BDE89F
:1012D000F0830B4B4FF06042CDE90623684617F0D0
:1012E00033FF0028E8D0089B002BEBD018F0B0F8B3
:1012F000089B0360E6E700BF78BE01000000F07FB6
:10130000FFFFEF477DF8B98FCE338640FF01002005
:101310002DE9F043DFF8E4808BB004460D4601F080
:1013200047F998F90030013306460F4633D020467E
:10133000294617F003FF70B32CA3D3E900232046FE
:10134000294618F03FFD814650BB2AA3D3E900236C
:101350002046294618F018FDE8B198F90030204AD7
:10136000CDF82090002000210426022BCDE9044571
:10137000CDE902450096CDE90601019229D06846E3
:1013800017F0E2FE28B3089B1BB118F061F8089B28
:101390000360DDE90667304639460BB0BDE8F083EF
:1013A0000F4A98F90030019203210022CDE904454B
:1013B000CDE90245009108922BB90A4B4FF06042EB
:1013C000CDE90623DBE708490020022BCDE9060121
:1013D000D5D118F03DF822230360D4E7AFF30080A5
:1013E00080BE0100FFFFEF470000F07FEF39FAFEFB
:1013F000422E864051302DD5104987C0FF01002074
:101400002DE9F04FDFF82C938DB006460F461446B9
:101410001D4601F09DFC99F90080B8F1FF3FCDE930
:10142000000136D022462B462046294618F0D4FC2F
:10143000834670BB32463B463046394618F0CCFCFA
:101440008246002840F0A280304639460022002320
:1014500018F090FC10B3002200232046294618F013
:1014600089FC8346002867D09FEDA77B0122AC4B07
:10147000CDF828A00292CDE90467CDE906458DEDAF
:10148000087B0393B8F1000F41D09FEDA17B8DED58
:10149000007BDDE900010DB0BDE8F08FDDE9000162
:1014A00017F04CFE8046002800F08D804FF0000AB7
:1014B0004FF0000BDDE9000152465B4618F05AFC84
:1014C0000028E6D03046394617F038FE0028E0D034
:1014D0002046294617F032FE0028DAD099F900306C
:1014E0008F4A039204210022022BCDE90467CDE943
:1014F0000645CDE908AB02910A9203D002A817F085
:1015000023FE50B917F0A4FF2223036005E002A8D0
:1015100017F01AFE002800F09B800A9B1BB117F001
:1015200097FF0A9B03609DED087B8DED007BDDE955
:1015300000010DB0BDE8F08F2046294617F0FEFDF2
:101540000028A6D0002200232046294618F01CFCC3
:1015500000289ED0724A99F90030CDF828B00121B8
:10156000CDE90467CDE90645CDE90212002B74D020
:101570006C490020022BCDE9080172D117F068FFF9
:10158000212303600A9B002BCDD0C8E70022002353
:101590002046294618F0EEFB00283FF47AAF624B54
:1015A0005F49CDF828B000220120B8F1020FCDE943
:1015B00004670290CDE90645CDE908230391A6D141
:1015C000CDE9002365E73046394617F0B7FD00281E
:1015D0003FF46CAF2046294617F0B0FD00283FF4D9
:1015E00065AFDDE900231046194618F0F5FB99F9BF
:1015F00000A000286BD10323DFF824C10A902946FC
:10160000204602930022494BCDF80CC0CDE9064597
:10161000CDE9046718F046F904460D46BAF1000F0B
:1016200025D1DFF814B14FF0604A00220023304684
:101630003946CDE908AB18F0A7FB38BB02A817F074
:1016400083FD00289ED117F003FF2223036099E752
:1016500017F0FEFE212303605FE79FED2B7B8DEDEE
:10166000087B02A817F070FD00288BD186E79FED5C
:101670002A7B00220023304639468DED087B18F086
:1016800083FBA0B9BAF1020FDDD0D7E72046294687
:1016900017F062FD22462B4618F06CFBA0B9244BD4
:1016A00099F900A04FF06042CDE90823EAE720460F
:1016B000294617F051FD22462B4618F05BFB18B95E
:1016C000184B0022CDE9082399F900A0DAE701229E
:1016D000134BCDF828800292CDE90467CDE9064589
:1016E0000393BAF1000FB8D0002200231046194628
:1016F00018F002FABAF1020FCDE908013FF43EAF4B
:10170000AFE700BFAFF30080000000000000000062
:10171000000000000000F03F000000000000F07F2B
:1017200098BE01000000F0FF0000F03F0000E03F25
:10173000FFFFEFC7FF010020FFFFEF4700000000A1
:101740002DE9F84FC44E21F00043B34204460D4644
:101750000DDD03F1404303F58013034340F0B980EE
:10176000002940F3408100200021BDE8F88FBB4EE6
:10177000B34208DCBA4A934200F3B5809CA1D1E998
:101780000001BDE8F88F0029C0F2708102460B46C7
:101790000020B44917F0CEFE0022B34B18F082F8B7
:1017A00004460D4616F08EFD93A3D3E90023894627
:1017B00080462946204618F075F891A3D3E9002306
:1017C00017F0BAFE22462B4618F06CF88EA3D3E928
:1017D000002317F0AFFE22462B4618F063F88CA3C7
:1017E000D3E9002317F0A8FE22462B4618F05AF83A
:1017F00089A3D3E9002317F09DFE22462B4618F05B
:1018000051F887A3D3E9002317F096FE22462B4612
:1018100018F048F884A3D3E9002382468B4620467B
:10182000294618F03FF882A3D3E9002317F082FE7F
:1018300022462B4618F036F87FA3D3E9002317F091
:101840007BFE22462B4618F02DF87DA3D3E900231A
:1018500017F070FE22462B4618F024F80022814B28
:1018600017F06AFE02460B465046594618F044F9F6
:1018700042464B4618F016F8002682468B46324602
:101880004B463046494618F00DF802460B462046B6
:10189000294617F04FFE324604460D464B46404659
:1018A000494617F049FE02460B462046294618F0E5
:1018B00023F902460B465046594617F03DFE324684
:1018C0004B4617F039FE02460B4617F035FEBDE8D1
:1018D000F88F02460B4617F02DFE02460B4618F015
:1018E0000BF9BDE8F88F02460B4617F0DBFF42A369
:1018F000D3E9002306460F4617F0D4FF40A3D3E9EF
:10190000002317F019FE32463B4617F0CBFF3EA3EB
:10191000D3E9002317F00EFE32463B4617F0C2FF14
:101920003BA3D3E9002317F007FE32463B4617F0EE
:10193000B9FF39A3D3E9002317F0FCFD32463B463B
:1019400017F0B0FF36A3D3E9002317F0F5FD3246B8
:101950003B4617F0A7FF34A3D3E90023804689460E
:101960003046394617F09EFF31A3D3E9002317F024
:10197000E1FD32463B4617F095FF2FA3D3E9002344
:1019800017F0DAFD32463B4617F08CFF2CA3D3E963
:10199000002317F0CFFD32463B4617F083FF0022AD
:1019A000304B17F0C9FD02460B464046494618F039
:1019B000A3F822462B4617F075FF02460B4622A1DC
:1019C000D1E9000117F0B6FD02460B462046294634
:1019D00017F0B0FD02460B4605A1D1E9000117F052
:1019E000A9FDBDE8F88F1AA1D1E9000179E700BF90
:1019F000182D4454FB21F93F09F7FD0DE13D023F4D
:101A000088B20175E0EF493F3B8F68B52882A43F5B
:101A10005544880E55C1C93F7D6FEB0312D6D43FA4
:101A2000555555555555C53F82922EB1C5B8B33F52
:101A300059018D1B6C06E63FC88A599CE52A004077
:101A40004B2D8A1C273A0340075C143326A6913C91
:101A5000182D4454FB210940FFFFEF3FFFFFDF3FFC
:101A60000000603C0000F03F0000E03F00225C4BC3
:101A700017F062FD00225B4B17F014FF40A3D3E97F
:101A8000002304460D4617F00DFF3FA3D3E90023C2
:101A900017F052FD22462B4617F004FF3CA3D3E972
:101AA000002317F047FD22462B4617F0FBFE3AA312
:101AB000D3E9002317F040FD22462B4617F0F2FE33
:101AC00037A3D3E9002317F035FD22462B4617F044
:101AD000E9FE35A3D3E9002317F02EFD22462B465D
:101AE00017F0E0FE804689462046294616F0EAFBBC
:101AF0002FA3D3E9002306460F462046294617F0B8
:101B0000D1FE2DA3D3E9002317F014FD22462B4666
:101B100017F0C8FE2AA3D3E9002317F00DFD2246D3
:101B20002B4617F0BFFE28A3D3E9002317F002FDD0
:101B300022462B4617F0B6FE0022294B17F0FCFC7C
:101B400002460B464046494617F0D6FF32463B4612
:101B500017F0A8FE1EA3D3E9002317F0EBFC3246D2
:101B60003B4617F0E9FC02460B4617F0E5FC02463F
:101B70000B4619A1D1E9000117F0DCFCB1E600BF6A
:101B800009F7FD0DE13D023F88B20175E0EF493FE5
:101B90003B8F68B52882A43F5544880E55C1C93F84
:101BA0007D6FEB0312D6D43F555555555555C53F5E
:101BB00082922EB1C5B8B33F59018D1B6C06E63F2A
:101BC000C88A599CE52A00404B2D8A1C273A0340BD
:101BD000075C143326A6913C182D4454FB21094080
:101BE0000000F03F0000E03F414A91422DE9F843F8
:101BF00004460D4637DD3F4A91420B4608DD02F1AF
:101C0000795291423DDD024617F096FCBDE8F8831B
:101C100001F1404202F5801202432ED0B1F1804F13
:101C200037DC0022344B17F085FC02460B46044695
:101C30000D4617F081FC224606460F462B462046ED
:101C4000294617F02FFE02460B463046394617F05C
:101C500073FC16F037FB22462B4617F06DFCBDE8EF
:101C6000F843FFF7C1B802460B4617F063FC024683
:101C70000B4617F041FFBDE8F88300200021BDE8C6
:101C8000F88300F00DFE18A3D3E9002317F054FCED
:101C9000F1E7024617F006FE0022174B17F04AFC48
:101CA00016F010FB2246804689462B4620462946E0
:101CB00017F042FC224606460F462B464046494650
:101CC00017F03AFC02460B4600200B4917F014FFB0
:101CD0000B4602463946304617F02CFCBDE8F84367
:101CE00000F0DEBDAFF30080EF39FAFE422EE63F92
:101CF000FFFFEF3FFFFFAF410000F03F000000009B
:101D00002DE9F04FAE4B21F000479F4287B00446CB
:101D10000D4611DD07F1404707F5801703463B43A9
:101D200021D002460B4617F005FC02460B4617F081
:101D3000E3FE07B0BDE8F08FA24B9F420E4629DCC0
:101D4000B7F1795F80F2468181A3D3E9002317F0D0
:101D5000F3FB00229C4B18F035F8D8B120462946F9
:101D600007B0BDE8F08F7CA3D3E9002317F09AFDFC
:101D70007BA3D3E9002306460F462046294617F0E9
:101D800091FD02460B463046394617F0D5FB07B0A9
:101D9000BDE8F08F2046294615F07EFB02460B4633
:101DA0000020894917F0C6FB0022884B17F07AFD06
:101DB0006DA3D3E9002304460D4617F073FD6CA311
:101DC000D3E9002317F0B8FB22462B4617F06AFD33
:101DD00069A3D3E9002317F0ADFB22462B4617F089
:101DE00061FD67A3D3E9002317F0A6FB22462B462B
:101DF00017F058FD64A3D3E9002317F09BFB22469C
:101E00002B4617F04FFD62A3D3E9002317F094FB94
:101E100022462B4617F046FD5FA3D3E90023CDE908
:101E200000012046294617F03DFD5DA3D3E90023BC
:101E300017F080FB22462B4617F034FD5AA3D3E956
:101E4000002317F079FB22462B4617F02BFD58A3F1
:101E5000D3E9002317F06EFB22462B4617F022FD34
:101E6000594B002217F068FB82468B4620462946D4
:101E7000CDE902AB16F026FA554B9F4280468946C3
:101E800000F3198102460B4617F056FBDDE90223E9
:101E9000CDE90401DDE9000117F02EFE02460B46F4
:101EA000DDE9040117F0FEFC4FF0000ACDE9000166
:101EB00052464B465046494617F0F4FC02460B4644
:101EC0002046294617F036FB524604460D464B463F
:101ED0004046494617F030FB02460B46204629464D
:101EE00017F00AFE02460B4617F026FB02460B4689
:101EF0001BA1D1E9000117F01DFB02460B46DDE9ED
:101F0000000117F017FB524604460D464B4650465B
:101F1000494617F011FB02460B4627A1D1E9000103
:101F200017F008FB02460B462046294617F002FB35
:101F300002460B4620A1D1E9000117F0FBFA002E62
:101F40003FF7F7AE01F100431946F2E6AFF3008028
:101F50009C7500883CE4377E182D4454FB21F93FE2
:101F6000075C143326A6913C09F7FD0DE13D023FC5
:101F700088B20175E0EF493F3B8F68B52882A43FE6
:101F80005544880E55C1C93F7D6FEB0312D6D43F2F
:101F9000555555555555C53F82922EB1C5B8B33FDD
:101FA00059018D1B6C06E63FC88A599CE52A004002
:101FB0004B2D8A1C273A0340182D4454FB21E93F3E
:101FC000FFFFEF3FFFFFDF3F0000F03F0000E03F7B
:101FD0003233EF3F02460B4617F064FC4BA3D3E9C4
:101FE000002306460F4617F05DFC4AA3D3E9002301
:101FF00017F0A2FA32463B4617F054FC47A3D3E948
:10200000002317F097FA32463B4617F04BFC45A3E6
:10201000D3E9002317F090FA32463B4617F042FC12
:1020200042A3D3E9002317F085FA32463B4617F066
:1020300039FC40A3D3E9002317F07EFA32463B4631
:1020400017F030FC3DA3D3E9002380468946304693
:10205000394617F027FC3BA3D3E9002317F06AFAAF
:1020600032463B4617F01EFC38A3D3E9002317F095
:1020700063FA32463B4617F015FC36A3D3E900233A
:1020800017F058FA32463B4617F00CFC00221E4B64
:1020900017F052FA02460B464046494617F02CFD0F
:1020A00022462B4617F0FEFB22462B4617F044FA39
:1020B00007B0BDE8F08F52465B46DDE9000117F03E
:1020C0001BFD42464B4617F0EDFB42464B4617F0D0
:1020D00033FA02460B4617F02FFA07A3D3E9002381
:1020E00017F028FA02460B4605A1D1E9000117F0C6
:1020F00021FA24E7AFF30080075C143326A6913C55
:10210000182D4454FB21F93F0000F03F09F7FD0D65
:10211000E13D023F88B20175E0EF493F3B8F68B572
:102120002882A43F5544880E55C1C93F7D6FEB03FB
:1021300012D6D43F555555555555C53F82922EB1AF
:10214000C5B8B33F59018D1B6C06E63FC88A599C40
:10215000E52A00404B2D8A1C273A0340000000006E
:102160002DE9F84F1D465342134325F00049DFF88F
:10217000C8C149EAD3736345144606460F4626D8BC
:10218000C0F1000848EA000821F0004A4AEAD8787D
:10219000E04503468B461AD805F1404808F58018FB
:1021A00058EA0208AE4643D04FEAA57808F0020884
:1021B0005AEA030348EAD17811D1B8F1020F55D099
:1021C000B8F1030F09D14AA1D1E9000105E0324677
:1021D0003B462046294617F0AFF9BDE8F88F59EA8B
:1021E000020329D0E1452ED0E24525D0AAEB09090A
:1021F0004FEA2959B9F13C0F3CDC002D3EDA19F1C8
:102200003C0F3BDA00200021B8F1010F4ED0B8F1AD
:10221000020F3ED0B8F1000FDFD037A3D3E900237F
:1022200017F088F936A3D3E9002317F083F9D4E730
:10223000BDE8F84FFEF744BBBBF1000F12DB32A143
:10224000D1E90001C9E7CA4534D0B8F1020F0DD079
:10225000B8F1030FB7D0B8F1010F4FF0000036D03E
:102260000021BAE72AA1D1E90001B6E724A1D1E90A
:102270000001B2E724A1D1E90001C5E722462B46BF
:102280003046394617F038FC15F006F9FEF718FB12
:10229000BAE719A3D3E9002317F04CF902460B461D
:1022A00017A1D1E9000117F045F996E701F10043C4
:1022B000194692E7B8F1020F14D0B8F1030F0DD010
:1022C000B8F1010F06D014A1D1E9000185E74FF064
:1022D000004182E712A1D1E900017EE712A1D1E914
:1022E00000017AE712A1D1E9000176E7AFF300809F
:1022F000182D4454FB2109C0075C143326A6A13CC9
:10230000182D4454FB210940182D4454FB21F93F5A
:10231000182D4454FB21F9BF182D4454FB21E93FEB
:10232000182D4454FB21E9BFD221337F7CD902C050
:10233000D221337F7CD902400000F07F00000000F2
:1023400043422DE9F047034321F000463C4A46EA68
:10235000D373934204460D462AD8964240D0394B57
:102360009E428A462EDD384B9E4235463FDD33463F
:102370000246314617F0E0F8224606460F462B4645
:1023800000202F4917F0D6F802460B463046394652
:1023900017F0B2FBFEF728FD00222C4B17F082FA53
:1023A000BAF1000F0CDA01F100431946BDE8F087DD
:1023B00002460B4617F0BEF802460B4617F09CFB90
:1023C000BDE8F0871CA3D3E9002317F0B5F800227D
:1023D000002317F0F7FC48B120462946BDE8F087F6
:1023E0000022002317F088FBBDE8F087354622461F
:1023F0002B462046294617F09FF822462B460646D4
:102400000F4617F04FFA2246804689462B46002099
:102410000B4917F08FF802460B464046494617F025
:102420006BFB32463B4617F087F8FEF7DDFC0022D7
:10243000064B17F037FAB3E79C7500883CE4377E0B
:102440000000F03FFFFF2F3EFFFFDF3F0000E03FB7
:102450002DE9F8434E4B21F000449C4206460F46BE
:102460001BDC4C4B9C4222DD4B4B9C4254DD4B4BC6
:102470009C4246DD4A4B9C426FDD01339C4269D051
:1024800041A3D3E900231046194617F00BFA06467C
:102490000F4630463946BDE8F88302460B4617F032
:1024A00001FA06460F4630463946BDE8F88314F077
:1024B000F3FF02F04DFC00223A4B8046894617F0AC
:1024C0003BF8B4F1725F06460F46ECDB42464B46E2
:1024D0004046494617F0E6F932463B4604460D466B
:1024E0003046394617F028F802460B462046294662
:1024F00017F002FB00222B4B17F01EF806460F4682
:10250000D1E714F0C9FF00F053F80022264B17F072
:10251000C9F906460F46C6E714F0BEFF00F048F8BA
:102520000022214B06460F4617F0BCF932460446FE
:102530000D463B4600201C4917F0DEFA02460B46CA
:102540002046294616F0F8FF06460F463046394623
:10255000BDE8F883154B984292D83046394614F0BE
:102560009BFF0022104B17F09DF900F021F800228C
:1025700004460D460C4B17F095F922462B4617F0F2
:1025800091F906460F468EE79C7500883CE4377E3D
:10259000FFFFEF7F422ED63FFFFF3540412E8640A2
:1025A000CD3386400000F03F0000E03F7DF8B98F5A
:1025B0002DE9F047B04F21F00042BA4284B0044602
:1025C0000D464FEAD17610D9AC4FBA4240F28A801C
:1025D000C1F313030343024640F0F180002E7ED086
:1025E0000020002104B0BDE8F087A54B9A4200F21C
:1025F000B680A44B9A4240F2D1804FF0000A2246A6
:102600002B462046294617F04DF985A3D3E9002330
:1026100006460F4617F046F983A3D3E9002316F0C8
:1026200089FF32463B4617F03DF981A3D3E90023E9
:1026300016F082FF32463B4617F034F97EA3D3E909
:10264000002316F077FF32463B4617F02BF97CA3A8
:10265000D3E9002316F070FF32463B4617F022F90B
:1026600002460B462046294616F064FF02460B46FA
:1026700006460F462046294617F014F9804689463B
:10268000BAF1000F00F0AB8032463B4600204FF01D
:10269000804116F04FFF02460B464046494617F070
:1026A0002BFA02460B46DDE9020116F043FFDDE995
:1026B000002316F03FFF0B4602467349002016F038
:1026C00039FF6FF47F739A4580F2A3800AF57A7A16
:1026D00001EB0A5100224FF0B87317F0E3F804B091
:1026E000BDE8F08758A3D3E9002317F06BFB00285F
:1026F0006BD157A3D3E900232046294617F044FBAA
:1027000000287FF46DAF614953A3D3E9002301EBA7
:10271000C6062046294617F0C5F8D6E9002316F06C
:102720000BFF17F06FFB824617F052F84CA3D3E96A
:10273000002306460F4617F0B5F802460B46204622
:10274000294616F0F7FE48A3D3E90023CDE900019E
:102750003046394617F0A6F8CDE9020115E04C4B9A
:102760009A42D0D84B4BF4002344D3E9002316F00F
:10277000E1FE494B234493ED007BCDE900018DED53
:10278000027BC6F1010AAAEB060ADDE90223DDE9B4
:10279000000116F0CFFE04460D4630E734A3D3E91E
:1027A000002316F0C9FE0022374B17F00BFBA8B32D
:1027B000204629460022344B16F0BEFE8FE70B461A
:1027C00016F0BAFE04B0BDE8F08729A3D3E90023D0
:1027D0001046194617F066F804B0BDE8F087304699
:1027E000394600224FF0804316F0A4FE02460B4605
:1027F0004046494617F080F922462B4616F09AFECD
:1028000002460B460020204916F094FE04B0BDE8B5
:10281000F08701EB0A5104B0BDE8F0878246EEE68E
:10282000D0A4BE726937663EF16BD2C541BDBB3ED6
:102830002CDE25AF6A56113F93BDBE166CC1663FB4
:102840003E5555555555C53FEF39FAFE422E864047
:1028500051302DD5104987C0FE822B654715F73FB3
:102860000000E0FE422EE63F763C7935EF39EA3D46
:102870009C7500883CE4377E412E8640FFFFEF7F49
:10288000422ED63FFFFF2F3E0000F03F98AB0100E5
:10289000B1A2F03FA8AB0100B8AB010000000000FE
:1028A0002DE9F04FB1F5801F85B006460F460B4667
:1028B00080F2D08021F00042024300F0DA8000294B
:1028C000C0F2E9800022D64B16F0ECFFD54A0B4649
:1028D000934206460F466FF0350E00F3C180C3F3F6
:1028E000130505F5152C0CF6647C0CF4801C8CF09B
:1028F0007F5282F440121C1542EA0507A4F2FF340D
:1029000074440022C84B3046394604EB1C5416F080
:1029100011FEAB1CC3F31303022B82468B464FF010
:10292000000240F3AF804FF0804316F005FE0246F0
:102930000B465046594617F0DFF8064620460F462C
:1029400016F046FF3246CDE902013B463046394695
:10295000CDE9006716F0A6FF02460B468046894681
:1029600016F0A0FF9AA3D3E9002306460F4616F0FF
:1029700099FF99A3D3E9002316F0DEFD32463B46CA
:1029800016F090FF96A3D3E9002316F0D5FD32464A
:102990003B4616F087FF94A3D3E9002316F0CCFD45
:1029A00042464B4616F07EFF91A3D3E900238046B2
:1029B00089463046394616F075FF8FA3D3E90023C8
:1029C00016F0BAFD32463B4616F06CFF8CA3D3E9F5
:1029D000002316F0B1FD32463B4616F063FF0B466E
:1029E00002464946404616F0A7FDA5F5C223C5F5A7
:1029F000D725A3F27A4351351D43002D06460F46D5
:102A000040F387800022894B5046594616F04AFF12
:102A100052465B4616F046FF02460B468046894604
:102A20003046394616F088FDDDE9002316F03AFFFE
:102A300006460F46002C40F0818002460B46404679
:102A4000494616F077FD02460B465046594616F0A9
:102A500071FD0BE0734A93424FF0000E7FF73FAFDA
:102A600032463B463046394616F066FD05B0BDE8B5
:102A7000F08F0022002300206D4917F03DF805B0CB
:102A8000BDE8F08F002317F075F960B1002C7CD100
:102A900000200021EAE7024616F04CFD0022002348
:102AA00017F02AF8E2E758A3D3E900235046594625
:102AB00016F0F8FE02460B4600205C4916F03AFD7F
:102AC000524606460F465B465046594616F0EAFE09
:102AD00002460B463046394616F0E4FE06460F46DF
:102AE0002CB3204616F074FE49A3D3E90023804698
:102AF000894616F0D7FE48A3D3E9002304460D46C5
:102B00004046494616F0CEFE02460B463046394650
:102B10002CE002460B465046594616F00BFDDDE907
:102B2000002316F0BFFE06460F46002C47D1324662
:102B30003B465046594616F0FDFC97E734A3D3E9CF
:102B40000023DDE9020116F0ADFE33A3D3E9002333
:102B500004460D46DDE9020116F0A4FE32463B466E
:102B600016F0EAFC02460B464046494616F0E2FCE7
:102B700052465B4616F0DEFC02460B4620462946CE
:102B800016F0D8FC05B0BDE8F08F204616F020FE08
:102B90001FA3D3E9002306460F4616F083FE1EA3AB
:102BA000D3E9002304460D463046394616F07AFE36
:102BB00002460B462046294616F0BEFC56E7DDE9E4
:102BC000028913A3D3E900234046494691E700BF99
:102BD00044523EDF12F1C23FDE03CB966446C73F4C
:102BE000599322942449D23F935555555555E53F65
:102BF0009FC678D0099AC33FAF788E1DC571CC3F70
:102C000004FA97999999D93F555555555555D53F3A
:102C10000000E0FE422EE63F763C7935EF39EA3D92
:102C200000005043FFFFEF7F0000F03F0000E03F57
:102C3000000050C300000000B1F5801F2DE9F843EB
:102C400004460D460B4619DA21F00042024359D0E2
:102C500000295FDB00223A4B16F024FE394A0D466C
:102C60002B46934204466FF035010CDD22462B467D
:102C70002046294616F060FCBDE8F883314A9342AD
:102C80004FF00001F2DC1815A0F2FF3008444FEAC3
:102C9000D0794844C3F3130816F09AFDC9F57F7341
:102CA000033348EA035506460F4620462946FFF7F8
:102CB000F7FD1DA3D3E900238046894630463946F7
:102CC00016F0F0FD1AA3D3E9002304460D46404652
:102CD000494616F0E7FD02460B462046294616F007
:102CE0002BFC15A3D3E9002304460D463046394694
:102CF00016F0D8FD02460B462046294616F01CFC6D
:102D0000BDE8F8830022002300200F4916F0F4FEEE
:102D1000BDE8F883024616F00DFC0022002316F0F1
:102D2000EBFEA9E7AFF30080362BF111F3FE593D1E
:102D30000EE526157BCBDB3F00609F501344D33F4D
:102D400000005043FFFFEF7F000050C30000000071
:102D50002DE9F04F23F0004555EA020493B00DD061
:102D60006B4E21F00044B4420F4682460BDD04F165
:102D7000404404F5801454EA0A0350D16549002008
:102D800013B0BDE8F08F9B46944647D0B542EEDCC9
:102D90005F4EB5425DD0002F80468946CDE90023C5
:102DA0005BDB0026BCF1000F0ED1594B9D423FD09A
:102DB000584B9D4200F08880BBF1804F00F09C8012
:102DC000554B9B4500F0B8834046494614F064FBE0
:102DD000BAF1000F06D1002C59D04E4B27F04042DB
:102DE0009A4254D0FF0F013F56EA070373D04B4B72
:102DF0009D4240F39B8003F104739D4240F33E8467
:102E0000474B9C4272DDBBF1000F72DD3EA3D3E95C
:102E100000231046194616F045FDB1E728B1414898
:102E200013B0BDE8F04F16F091B9A542F7DCAFE75B
:102E300004F1404303F5801353EA0A039ED0384B54
:102E40009C4240F38383BBF1000F52DBDDE90001BC
:102E500096E7BCF1000F9ED089E7334B9D4231DCF1
:102E6000A3F154739D429CDD2B15A3F2FF33142B69
:102E700040F3A583C3F134032CFA03F202FA03F3FF
:102E800063458ED102F00102C2F102068AE7BBF16E
:102E9000000F05DA02460B4600201E4916F02CFEF4
:102EA000002FBFF66DAF04F1404404F5801454EADE
:102EB000060300F03F84012E7FF462AF01F100436E
:102EC00019465DE702266DE7BBF1000FC0F24883AB
:102ED0004046494654E742464B461046194616F0CE
:102EE00029FB02460B4616F007FE49E7BBF1000F2F
:102EF0008CDB0020002143E742464B4640464946D2
:102F000016F0D0FC3CE700BF9C7500883CE4377E9F
:102F10000000F07F0000F03F0000E03F0000E041D3
:102F2000FFFFEF3FE4B30100FFFF3F43B4F5801F15
:102F300080F261830022D24B16F0B4FC6FF0340CA7
:102F40000C462315CF4DC4F31302A3F2FF3342F016
:102F50007F546344AA420B9344F4401440F33F83EC
:102F6000C94B9A4240F304849FEDAF7B8DED087B03
:102F70008DED107B9FEDAE7B0B9B8DED067B0133C2
:102F80000B93A4F580140025DDE906232146824633
:102F900016F0D0FAA346DDE906238046894650465E
:102FA0002146CDE90CAB16F0C7FA02460B460020CD
:102FB000B64916F0A1FD0A460146CDE90E121346A8
:102FC00049460246404616F06DFC631043F000533C
:102FD00082468B4603F500238C46CDE904AB591994
:102FE000D3460023CDE902BC0293DDE902AB002009
:102FF00004460D4602460B465046594616F052FC12
:1030000002460B464046494616F094FADDE906238F
:10301000804689462046294616F08CFA02460B4621
:10302000DDE90C0116F086FA52465B4616F03AFCD2
:1030300002460B464046494616F07CFADDE90E236F
:1030400016F030FCDDE90445CDE9060122462B46A9
:103050002046294616F026FC77A3D3E90023044630
:103060000D4616F01FFC76A3D3E9002316F064FA90
:1030700022462B4616F016FC73A3D3E9002316F064
:103080005BFA22462B4616F00DFC71A3D3E9002310
:1030900016F052FA22462B4616F004FC6EA3D3E932
:1030A000002316F049FA22462B4616F0FBFB6CA3D0
:1030B000D3E9002316F040FA2246804689462B4683
:1030C0002046294616F0EEFB02460B46404649468E
:1030D00016F0E8FB524604460D465B46DDE9040166
:1030E00016F02AFADDE9062316F0DCFB22462B4611
:1030F00016F022FA5246804689465B4650465946AB
:1031000016F0D0FB0022624BCDE90C0116F014FA48
:1031100042464B4616F010FA02980D4604462246E7
:103120002B465046594616F0BDFB002282468B4680
:10313000574B2046294616F0FDF9DDE90C2316F021
:10314000F9F902460B464046494616F0F3F9DDE927
:10315000042316F0A7FB2246804689462B46DDE96C
:10316000060116F09FFB02460B464046494616F004
:10317000E3F98046894602460B465046594616F00A
:10318000DBF9029838A3D3E9002304460D4616F074
:1031900089FB5246CDE904015B462046294616F0DC
:1031A000C9F902460B464046494616F0C3F930A31A
:1031B000D3E9002316F076FB2FA3D3E90023804642
:1031C00089462046294616F06DFB02460B464046CE
:1031D000494616F0B1F9DDE9102316F0ADF9804645
:1031E0000B98894616F0F4FA424682468B464B46C7
:1031F000DDE9040116F0A0F9DDE9082316F09CF9D9
:1032000052465B4616F098F9029852465B460446D1
:103210000D4616F08FF9DDE9082316F08BF9DDE98C
:10322000042337E0AFF3008000000000000000003E
:10323000000000000000F03FEF4E454A287ECA3FE4
:1032400065DBC9934A86CD3F01411DA96074D13F1A
:103250004D268F515555D53FFFAB6FDBB66DDB3F2C
:10326000033333333333E33F000000E009C7EE3F5D
:10327000FD033ADC09C7EE3FF5015B14E02F3EBECB
:10328000000040438E98030079B60B000000F03F29
:103290000000084016F04EF90B46024649464046EB
:1032A00016F048F9013E56EA070382468B4600F0C5
:1032B0005E819FEDD37B8DED047BDDE90012002361
:1032C0000E461746CDE902670293DDE9026708461C
:1032D0003B461146324616F02DF922462B4616F093
:1032E000E1FADDE90023804689465046594616F04A
:1032F000D9FA02460B464046494616F01DF93246B9
:10330000804689463B4620462946CDE9008916F08D
:10331000C9FA0B46024606460F464046494616F095
:103320000BF9D14B994204460D468A4640F324815D
:1033300001F13F4303F5E003034340F0FF81B2A3F3
:10334000D3E90023DDE9000116F0F6F832468046A5
:1033500089463B462046294616F0ECF802460B46C5
:103360004046494616F02EFD002840F0E781A84669
:103370004FEA2853A3F2FE324FF480131341534413
:10338000C3F30A52B94DA2F2FF321541C3F313043D
:1033900023EA05010020C2F1140B44F48014BAF1B1
:1033A000000F02460B4644FA0BFB30463946B8BFC5
:1033B000CBF1000B16F0BEF806460F463246DDE9AB
:1033C00000013B4616F0B8F84FEA0B5A0D460024B0
:1033D0008FA3D3E900232046294616F063FA32462C
:1033E000804689463B462046294616F0A3F8024609
:1033F0000B46DDE9000116F09DF887A3D3E9002311
:1034000016F050FA86A3D3E9002306460F4620465D
:10341000294616F047FA02460B463046394616F062
:103420008BF806460F4602460B464046494616F0C4
:1034300083F842464B4604460D4616F07BF802469A
:103440000B463046394616F075F8224680468946C6
:103450002B462046294616F025FA73A3D3E900230C
:1034600006460F4616F01EFA71A3D3E9002316F0A4
:1034700061F832463B4616F015FA6FA3D3E90023F4
:1034800016F05AF832463B4616F00CFA6CA3D3E914
:10349000002316F04FF832463B4616F003FA6AA3B3
:1034A000D3E9002316F048F832463B4616F0FAF905
:1034B00002460B462046294616F03CF806460F46C3
:1034C00002460B462046294616F0ECF90022CDE9CB
:1034D00000014FF080433046394616F02BF8024683
:1034E0000B46DDE9000116F007FB424606460F4693
:1034F0004B462046294616F0D5F942464B4616F073
:103500001BF802460B463046394616F013F82246A1
:103510002B4616F00FF802460B460020544916F0D1
:1035200009F88A44BAF5801FC0F232815146DDE9BC
:10353000042316F0B7F923E4002FFFF645AC40460C
:10354000494613B0BDE8F04F14F0BCBEBBF1000F0C
:10355000BFF6CFACDDE90034184604F100410FE4BA
:1035600042464B460020424916F0C6FA08E49FED59
:10357000387B8DED047BA0E63E4B21F0004898455A
:1035800040F3EA803C4B0B4403430AD132463B46AE
:1035900015F0D0FFDDE9002316F00AFC00283FF407
:1035A000E7AEDDE904012CA3D3E9002316F07AF994
:1035B00029A3D3E9002316F075F9FFF7E1BBBCF1AD
:1035C000000F40F0D280C3F1140345FA03F202FA6F
:1035D00003F3AB4200F0E0806646FFF7E9BB9FEDE6
:1035E000207B8DED087B8DED107B9FED057B00250D
:1035F0008DED067BC8E44FF0000CA2E4AFF3008031
:10360000000000000000F03FFE822B654715973C4C
:1036100000000000432EE63FEF39FAFE422EE63F5F
:10362000396CA80C615C20BED0A4BE726937663EBE
:10363000F16BD2C541BDBB3E2CDE25AF6A56113FB2
:1036400093BDBE166CC1663F3E5555555555C53F99
:10365000000000000000F0BF59F3F8C21F6EA50182
:103660000000000000000000FFFF8F40FFFF0F0080
:103670000000F03FFFCB904000346F3F5A4B9C421C
:103680007FF734AC594B9C423FF7BDAB0022574B00
:1036900015F050FF44A3D3E9002304460D4616F06D
:1036A00001F943A3D3E9002382468B4620462946ED
:1036B00016F0F8F80022CDE902014D4B20462946CC
:1036C00016F0F0F802460B463BA1D1E9000115F0D7
:1036D00031FF22462B4616F0E5F802460B46002045
:1036E000444915F027FF2246804689462B4620464E
:1036F000294616F0D7F802460B464046494616F0D2
:10370000D1F82FA3D3E9002316F0CCF802460B46DC
:10371000DDE9020115F00EFF02460B4680468946A0
:103720005046594615F008FF002004460D46524603
:103730005B46AFE502460B46FFF7CFBBDDE9040170
:1037400021A3D3E9002316F0ADF81FA3D3E900238A
:1037500016F0A8F8FFF714BB264B98453FF708AEC4
:10376000DDE902239246934631E60026FFF72CBBA3
:103770009FED177B8DED087B9FED177B8DED107B0B
:103780009FED177B4FF480258DED067BFFF7FCBB8B
:103790005A4601F029FDCAE602F00102C2F1020612
:1037A000FFF706BBAFF30080000000604715F73F4E
:1037B00044DF5DF80BAE543E555555555555D53F34
:1037C000FE822B654715F73F9C7500883CE4377EE9
:1037D0000000004003B8E23F06D0CF43EBFD4C3E73
:1037E000000000000000F83FFEFFEF3F0000F03F48
:1037F0000000D03F0000E03F2DE9F047CA4B21F028
:1038000000479F4290B08046894640F38F80C74B67
:103810009F420C46924626DC0029B9A3D3E9002337
:1038200040F38F8015F086FEC14B9F4204460D4643
:1038300000F04781B4A3D3E9002315F07BFE0246D4
:103840000B46CAE900232046294615F073FEAEA3B5
:10385000D3E9002315F06EFE0125CAE902012846CE
:1038600010B0BDE8F087B34B9F4240F38980B24B64
:103870009F4200F31C813D15A5F21645A7EB0553A9
:1038800019461F46064616F0BDFA15F0A1FF804600
:10389000894642464B4630463946CDE90A8915F0FD
:1038A00049FE0022A54B15F0FDFF8946804616F023
:1038B000A9FA15F08DFF06460F4632463B464046B4
:1038C0004946CDE90C6715F035FE00229B4B15F0FB
:1038D000E9FF00220023CDE90E0116F04BFA002883
:1038E00000F06081002330463946002216F042FA8B
:1038F000002814BF01230223914A019202212A4683
:1039000000910AA8514600F087FB002C054614DA06
:10391000DAF80420DAF80C3002F1004203F1004337
:103920004542CAF80420CAF80C3006E00020002105
:10393000C2E90089C2E902010025284610B0BDE8AD
:10394000F08715F0F9FD7A4B9F4204460D4600F0D2
:103950000B816DA3D3E9002315F0EEFD02460B4663
:10396000CAE900232946204615F0E4FD66A3D3E901
:10397000002315F0E1FD4FF0FF35CAE90201DCE755
:1039800013F08AFD62A3D3E900238046894615F02F
:1039900089FF00226B4B15F0CFFD16F033FA054678
:1039A00015F016FF56A3D3E90023CDE9060115F063
:1039B00079FF02460B464046494615F0BBFD52A32F
:1039C000D3E9002380468946DDE90601CDE9028975
:1039D00015F068FF1F2D02460B46CDE9042340F386
:1039E000B380DDE90423DDE9020115F0A3FD804683
:1039F00089463F15C9F30A53FB1A102B40F3B180D7
:103A000045A3D3E90023DDE9060115F04BFF80460D
:103A1000894602460B46DDE9020115F08BFD0246A0
:103A20000B46DDE90201CDE9082315F083FD42468E
:103A30004B4615F07FFD3AA3D3E900238046894623
:103A4000DDE9060115F02EFF42464B4615F072FDEA
:103A50000B46CDE904010246DDE9080115F06AFDD7
:103A6000C1F30A53FF1A312F8046894600F39C8028
:103A70009DED087BCAE900898DED027B42464B46ED
:103A8000DDE9020115F056FDDDE9042315F052FDD4
:103A9000002CCAE90201BFF650AF09F1004401F160
:103AA00000436D42CAE90084CAE9020345E70246C1
:103AB0000B4615F03FFD0025CAE90201CAE90001E5
:103AC0003BE715A3D3E9002315F034FD14A3D3E994
:103AD00000230D46044615F02DFD02460B46CAE9AB
:103AE00000232946204615F025FD0DA3D3E9002328
:103AF00015F020FD0125CAE902011EE7AFF30080A1
:103B000000004054FB21F93F3163621A61B4D03D9B
:103B100083C8C96D305FE43F0000601A61B4D03DD6
:103B20007370032E8A19A33BFB21E93F7BD9024026
:103B3000FB21F93FFB213941FFFFEF7F000070417E
:103B40003CBF01000000E03F4046494615F0F2FC52
:103B5000394B6A1E804653F82230BB4289463FF4F7
:103B600048AFCAE9008989E72BA3D3E9002315F000
:103B7000E3FC2BA3D3E900230D46044615F0DCFC3F
:103B800002460B46CAE900232946204615F0D2FC1E
:103B900023A3D3E9002315F0CFFC4FF0FF35CAE98A
:103BA0000201CAE60323A7E61FA3D3E90023DDE948
:103BB000060115F077FE06460F4602460B46DDE984
:103BC000080115F0B7FC8046894602460B46DDE940
:103BD0000801CDE9028915F0ADFC32463B4615F0EF
:103BE000A9FC13A3D3E9002306460F46DDE906012D
:103BF00015F058FE32463B4615F09CFC02460B463B
:103C000040464946CDE9042315F094FC8046894698
:103C1000A7E700BFAFF300800000601A61B4D03D99
:103C20007370032E8A19A33B0000002E8A19A33B50
:103C3000C14920259A837B39BCBE010000000000E9
:103C4000574A2DE9F84F21F00048904506460F46A7
:103C50002CDC544B0029B4BF534D544D98454FF0C4
:103C6000000411DC524B984526DC4BA3D3E900231A
:103C700015F062FC00224F4B16F0A4F8002840D04B
:103C800030463946BDE8F88F4B4B984530DD4B4BFD
:103C9000984568DD0133984562D0304639463EA3E9
:103CA000D3E9002315F0FEFDBDE8F88F02460B4670
:103CB00015F042FCBDE8F88F13F0EEFB01F048F878
:103CC0003F4B984506460F4623DD0022394B15F041
:103CD00033FC02460B463046394615F00DFF32469E
:103CE0003B4615F029FC22462B4615F0DBFDE1E7AB
:103CF00013F0D2FBFEF75CFC22462B4615F0D2FDFA
:103D0000D8E73046394613F0C7FB01F021F80646E4
:103D10000F4632463B463046394615F00DFC3246DA
:103D200082468B463B463046394615F0BBFD0022A5
:103D3000804689461F4B3046394615F0FDFB02464A
:103D40000B464046494615F0D7FE02460B46504604
:103D5000594615F0EFFB22462B4615F0A3FDA9E7C7
:103D6000184B984299D83046394613F095FB0022FB
:103D70000E4B15F097FDFEF71BFC06460F4602465C
:103D80000B462046294615F08DFD32463B4615F080
:103D900089FD8FE7AFF300803374AC3C1F7BAC7FB1
:103DA000FFFFEF7FFFFF35400000E0BF0000E03F76
:103DB000FFFF2F3E0000F03F412E8640CD3386406E
:103DC000FFFFEF3F7DF8B98F2DE9F04F21F000485C
:103DD000B8F1795F85B006460F4692469B466BDA8E
:103DE00016F010F8002800F0E18032463B463046DD
:103DF000394615F057FD74A3D3E9002304460D4658
:103E000015F050FD72A3D3E9002315F095FB22466F
:103E10002B4615F047FD70A3D3E9002315F08AFB6C
:103E200022462B4615F03EFD6DA3D3E9002315F085
:103E300083FB22462B4615F035FD6BA3D3E9002307
:103E400015F078FB22462B4615F02CFD68A3D3E92C
:103E5000002315F071FB22462B4615F023FDCDE91A
:103E600000010022664B2046294615F01BFDDDE9C6
:103E70000023804689462046294615F013FD524608
:103E800004460D465B463046394615F00BFD0246AA
:103E90000B462046294615F04DFB02460B46404690
:103EA000494615F047FB02460B460020554915F0E0
:103EB00041FB05B0BDE8F08F02460B4615F0F2FC61
:103EC00041A3D3E9002304460D4615F0EBFC40A3C3
:103ED000D3E9002315F030FB22462B4615F0E2FC17
:103EE0003DA3D3E9002315F025FB22462B4615F010
:103EF000D9FC3BA3D3E9002315F01EFB22462B4639
:103F000015F0D0FC38A3D3E9002315F013FB2246AB
:103F10002B4615F0C7FC36A3D3E9002315F00CFBA4
:103F20002B46224615F0BEFC374B9845CDE90001E3
:103F300097DD364B98453EDCA8F5001300220020A3
:103F400030499046994615F0F5FACDE90201002274
:103F50002B4B2046294615F0A5FC42464B4615F052
:103F6000E9FADDE90023804689462046294615F016
:103F700099FC524604460D465B463046394615F0DC
:103F800091FC02460B462046294615F0D3FA02461C
:103F90000B464046494615F0CDFA02460B46DDE990
:103FA000020115F0C7FA05B0BDE8F08F15490020F1
:103FB00005B0BDE8F08F9FED107B4FF000088DED50
:103FC000027BDFF84C90C2E7D43888BEE9FAA8BD7E
:103FD000C4B1B4BD9EEE213EAD529C804F7E923E58
:103FE0009015CB19A001FA3E7751C1166CC1563F0E
:103FF0004C5555555555A53F000000000000E73FC2
:104000000000E03F0000F03F3233D33F0000E93FC3
:104010000000D23F000000002DE9F04FADF5197D02
:10402000BE4CA29EBE4D54F826600793D41E85FB5D
:104030000475E417C4EBA50424EAE4741D46631C6C
:10404000A3EB8303013D02EBC303059373190496AD
:104050000994019503900B91A4EB05071AD43B44F6
:10406000002400255E1C0DF18008DDF88C9208E02C
:1040700059F8270015F0ACFB0137B742E8E8020118
:1040800008D0002FF4DA013720462946B742E8E885
:104090000201F6D1049B002B079B4FEAC303029356
:1040A0002ADB039A20A902EB030801EB0309049B16
:1040B00072AA02EBC30B0DF5E07A019B002B4FF0C7
:1040C00000064FF0000711DB039C4D4675E9022303
:1040D000F4E8020115F0E6FB02460B46304639468D
:1040E00015F02AFA444506460F46EFD1EAE8026782
:1040F000DA4509F10809E0D1DDE902040499204418
:104100008B0082460BA8A3F10802C31808930CABDE
:1041100013440A938B4698AB03EBCB03BBF1000F20
:1041200053E9284529DD70AB03EBCB080DF13009CD
:1041300000227C4B2046294615F0B4FB15F062FEA8
:1041400015F046FB0022784B06460F4615F0AAFBF9
:1041500002460B462046294615F0ECF915F052FEB2
:1041600078E9022349F8040B3946304615F0E4F9A2
:1041700070AB984504460D46DAD1DDF81490204620
:1041800029464A4601F030F800224FF07F5304469A
:104190000D4615F087FBFCF7A7FD0022634B15F0D9
:1041A00081FB02460B462046294615F0C3F90D4611
:1041B000044615F027FE804615F00AFB0B46024622
:1041C0002946204615F0B6F94B46002B06460F4609
:1041D00040F3E1800BF1FF320CA9C9F1180351F84B
:1041E000225045FA03F101FA03F30CA8EB1A40F848
:1041F0002230C9F11705884443FA05F5002D2CDD5E
:10420000BBF1000F08F1010840F381820C9C002CE7
:1042100040F0A780BBF1010F0AD00CA9012251F890
:10422000044F531C002C40F09E809B451A46F6D14B
:10423000059B002B0EDD012B00F0D980022B09D14C
:104240000BF1FF320CAB0CA953F82230C3F315036A
:1042500041F82230022D00F0AF80002200233046CA
:10426000394615F087FD002800F05382049B0BF1BE
:10427000FF394B4510DC0BF180430CAA013B089839
:1042800002EB8303002253F80419834242EA01023D
:10429000F9D1002A40F0B680049B0CAA013B52F8E9
:1042A0002330002B40F0A1800A9A012352F8041910
:1042B00001330029FAD05B440BF1010999450693BB
:1042C0004CDC099A079909EB020801EB0B0508F190
:1042D000804802EB030BA39B08F1FF3803EB88082F
:1042E00070AB03EBC909A39B20A903EB8B0301EB84
:1042F000C505029358F8040F15F06AFA0B460199A8
:104300000246002905F1080BC5E900234FF000061D
:104310004FF000071CDB039C0CE000BFDCC3010076
:10432000ABAAAA2A0000703E0000704100002040A5
:1043300075E90223F4E8020115F0B4FA02460B46CF
:104340003046394615F0F8F8544506460F46EFD189
:10435000029B9845E9E802675D46CBD1DDF818B0CD
:10436000D9E6012300220CA9C4F180749B4541F8D1
:1043700022400EDD51F8232001EB8B0001EB83037B
:104380006FF07F4100E01A688A1A43F8042B8342D9
:10439000F9D101244CE706D10BF1FF330CAA52F8F6
:1043A0002350ED152AE700227B4B15F001FD002874
:1043B00040F0A381054650E732463B46002077494E
:1043C00015F0B8F806460F46002C3FF446AF059AA4
:1043D0007249002000F008FF02460B46304639467D
:1043E00015F0A8F806460F4637E7012363E70BF1FF
:1043F000FF320CAB0CA953F82230C3F3160341F87B
:10440000223027E70CAB059A53F82930183ACDE94A
:10441000068505926BB909F18043013B0CA901EBBC
:10442000830353F8041909F1FF39183A0029F8D029
:104430000592059A5949002000F0D6FEB9F1000F07
:1044400004460D46C0F2C0814FEAC90370AA02EBD0
:10445000030808930CAB03EB8906DFF844B14FF077
:10446000000A08F10807043656F8040D15F0B0F9F3
:1044700022462B4615F016FA5B4667E902015246C2
:104480002046294615F00EFA0CAB9E4204460D4616
:10449000EAD148AB03930193CDF8149009F10103DD
:1044A000DDF810900293C3464FF0000AB9F1000FF7
:1044B000C0F22A81DFF8EC805D4635A3D3E9002302
:1044C00000260027002403E0544510DCF8E802230E
:1044D000F5E8020115F0E6F902460B46304639468A
:1044E00015F02AF80134A14506460F46ECDA019B87
:1044F000E3E802670193029B0AF1010A9A45ABF1D6
:10450000080BD3D1A29BDDF81490032B39D8DFE838
:1045100013F0D900060006004D0048AB0393B9F133
:10452000000F4FF000004FF0000109DB039D05EB89
:10453000C904083474E9022314F0FEFFA542F9D13E
:10454000079B002B40F01E810B9BC3E900010B462B
:1045500003990246D1E9000114F0ECFFB9F1000F14
:104560000CDD4AAD01240134F5E8022314F0E4FF28
:10457000A145F8DA079B002B40F014810B9BC3E99F
:104580000201069B03F007000DF5197DBDE8F08FD1
:1045900000000040FB21F93F0000E03F0000F03F39
:1045A0000000703EE0AB010048AB0393B9F1000F8F
:1045B00040F32781039ACDF810904FEAC903019385
:1045C000D318D3E900AB09F10053013B02EBC90852
:1045D0000293914678E9026752465B463046394677
:1045E00014F0AAFF04460D4602460B4630463946F3
:1045F00014F0A0FF52465B4614F09EFFC145A24650
:10460000AB46C8E90201C8E90045E3D1DDF81090E6
:10461000B9F1010F40F3F580019B039A029913440D
:10462000C900D3E9006701F1080A019192440DF530
:10463000947B7AE9028932463B464046494614F06B
:104640007BFF04460D4602460B464046494614F0A1
:1046500071FF32463B4614F06FFFD34526462F4686
:10466000CAE90201CAE90045E3D1019C039B103469
:10467000002000211C4403F1100574E9022314F00A
:104680005BFFA542F9D1039C079ED4E90023D4E93E
:104690000245002E00F08A8003F1004701F100433B
:1046A0000B99C1E90403069B2646944605F1004494
:1046B00003F00700C1E900C7C1E902640DF5197DE7
:1046C000BDE8F08F089C039D0834002000212C4495
:1046D00074E9022314F030FFA542F9D1079B13B10E
:1046E00001F1004319460B9BC3E90001069B03F04F
:1046F00007000DF5197DBDE8F08FBBF1000F08F143
:10470000010874DD022581E500260027EFE600247C
:104710008EE5CDE90685059D304639466A4200F0B2
:1047200063FD0022384B06460F4615F041FB00B3EF
:104730000022364B3046394615F0B4F815F062FBCE
:10474000044615F045F800222F4B15F0ABF80B4648
:1047500002463946304614F0EDFE15F053FB0BF1DE
:1047600001090CAB183543F82B00059543F8294097
:104770005FE63046394615F045FB0CABD94643F8A9
:104780002B0056E60B9C01F10043C4E900030B46E5
:1047900003990246D1E9000114F0CCFEB9F1000FF3
:1047A0003FF7DFAE01F100431946E7E60B9EC6E98D
:1047B0000023069BC6E9040103F00700C6E9024591
:1047C0000DF5197DBDE8F08FA29B032B3FF6D9AE06
:1047D00001A252F823F000BFE94700001B4500008A
:1047E0001B450000A94500000020002176E7324665
:1047F0003B460020064914F09DFE022506460F4662
:104800002BE5002000213EE7000070410000703ED3
:104810000000F03F000000002DE9F04F21F00046BD
:10482000B6F1795F85B004460D469046994604DAA4
:1048300015F0E8FA002800F0858022462B46204635
:10484000294615F02FF806460F4602460B4620462D
:10485000294615F027F841A3D3E9002382468B4669
:104860003046394615F01EF83EA3D3E9002314F074
:1048700061FE32463B4615F015F83CA3D3E9002310
:1048800014F05AFE32463B4615F00CF839A3D3E932
:10489000002314F04FFE32463B4615F003F837A3D1
:1048A000D3E9002314F048FE0E9BCDE900019BB331
:1048B0000022294B4046494614F0F4FFDDE900236D
:1048C000CDE902015046594614F0ECFF02460B4672
:1048D000DDE9020114F02EFE32463B4614F0E2FF01
:1048E00042464B4614F026FE19A3D3E900230646A0
:1048F0000F465046594614F0D5FF02460B46304647
:10490000394614F019FE02460B462046294614F09B
:1049100011FE05B0BDE8F08F02460B463046394621
:1049200014F0C0FF0AA3D3E9002314F003FE52469B
:104930005B4614F0B7FF22462B4614F0FDFD05B090
:10494000BDE8F08F2046294605B0BDE8F08F00BFD6
:10495000495555555555C53F0000E03F7CD5CF5AC8
:104960003AD9E53DEB9C2B8AE6E55A3E7DFEB157F0
:10497000E31DC73ED561C119A0012A3FA6F8101159
:104980001111813F000000002DE9F04FC04C21F0D3
:10499000004687B0A64282468B460F46CDE90023EB
:1049A0001ADC15F02FFA00283FD1109B5246013334
:1049B0001343334300F0B781109B012B00F0C081FB
:1049C0005B460020B34915F097F804460D46204693
:1049D000294607B0BDE8F08FAF4B9E4225DD002988
:1049E00009DADDE90045224605F10043CDE900235F
:1049F0000BF100418B4652465B4685A1D1E900018F
:104A000014F098FDDDE9002304460D4682A1D1E9AA
:104A1000000114F08FFD9FED827B22462B468DED29
:104A2000007B14F089FD82468B4652465B46504619
:104A3000594614F037FF02460B468046894614F06B
:104A400031FF424604460D464B465046594614F047
:104A500029FF75A3D3E90023CDE9020120462946A9
:104A600014F020FF72A3D3E9002314F065FD224661
:104A70002B4614F017FF70A3D3E9002314F05CFD5C
:104A800022462B4614F00EFF6DA3D3E9002314F049
:104A900053FD22462B4614F005FF6BA3D3E90023F8
:104AA00014F04AFD22462B4614F0FCFE68A3D3E91D
:104AB000002314F041FD42464B4614F0F3FE66A37A
:104AC000D3E90023CDE904012046294614F0EAFE8B
:104AD00063A3D3E9002314F02FFD22462B4614F0E4
:104AE000E1FE61A3D3E9002314F026FD22462B4604
:104AF00014F0D8FE5EA3D3E9002314F01DFD224676
:104B00002B4614F0CFFE5CA3D3E9002314F014FD70
:104B100022462B4614F0C6FE59A3D3E9002314F015
:104B20000BFD02460B46DDE9040114F005FDDDE94D
:104B3000022314F0B7FEDDE9004522462B4614F0AF
:104B4000FBFC42464B4614F0ADFE22462B4614F0C9
:104B5000F3FC4DA3D3E9002304460D46DDE9020131
:104B600014F0A0FE22462B4614F0E6FC0B4602464B
:104B7000804689465046594614F0DEFC464B9E421C
:104B800004460D4600F38C80109B012B3BD002465F
:104B90000B4600203F4914F0AFFF002406460F46A5
:104BA0002046294652465B46CDE90067CDE9020121
:104BB000009414F0BFFCDDE900AB02460B46404612
:104BC000494614F0B7FC52465B4614F06BFE524661
:104BD00004460D465B46DDE9020114F063FE002247
:104BE0002E4B14F0A9FC02460B462046294614F031
:104BF000A3FC32463B4614F055FE52465B4614F089
:104C00009BFC04460D462046294607B0BDE8F08FC0
:104C1000182D4454FB21E93F075C143326A6813C40
:104C20000000000000000000D47ABF74702AFB3E30
:104C3000E9A7F0320FB8123F68108D1AF726303FFF
:104C40001583E0FEC8DB573F93846EE9E326823F7D
:104C5000FE41B31BBAA1AB3F735360DBCB75F3BE10
:104C6000A69237A0887E143F0165F2F2D844433FF4
:104C7000280356C9226D6D3F37D60684F464963FEB
:104C80007AFE10111111C13F635555555555D53F49
:104C9000FFFF2F3E0000F0BF2794E53F0000F03FEC
:104CA000109814F095FD2246CDE900012B462046D0
:104CB000294614F0F7FDDDE90023CDE90201204685
:104CC000294614F039FC02460B46DDE9020114F0D6
:104CD00013FF42464B4614F02DFC02460B4650464D
:104CE000594614F027FC02460B4614F025FC0246F8
:104CF0000B46DDE9000114F01DFC0446B81700F076
:104D00000200C0F101000D4614F062FD02460B46A0
:104D10002046294614F0C6FD04460D462046294685
:104D200007B0BDE8F08F5046594612F0B5FB024679
:104D30000B460020044914F0DFFE04460D4662E7EE
:104D400054465D465FE700BF0000F03F00000000F2
:104D50002DE9F04FCC4A21F00043934285B08246C2
:104D60008B460C4620D9C94A934200F2D780002CCA
:104D700080F2A481ACA3D3E900235046594614F035
:104D8000DBFB0022002314F0FFFF002840F0D1805D
:104D9000A7A3D3E900235046594614F083FD0246E9
:104DA0000B460020BA4994E1BA4A934200F2E580EA
:104DB000B94A934240F22E81002301930022B74B5F
:104DC0005046594614F06EFD06460F4602460B4605
:104DD0005046594614F066FD97A3D3E900230446D4
:104DE0000D4614F05FFD96A3D3E9002314F0A4FB55
:104DF00022462B4614F056FD93A3D3E9002314F06A
:104E000099FB22462B4614F04DFD91A3D3E90023D4
:104E100014F092FB22462B4614F044FD8EA3D3E9F6
:104E2000002314F087FB22462B4614F03BFD0022A2
:104E30009B4B14F081FB8046894602460B46304668
:104E4000394614F02FFD02460B460020954914F018
:104E500071FB064602460B460F464046494614F093
:104E600069FB3246804689463B465046594614F017
:104E700019FD02460B4600208B4914F05BFB0246ED
:104E80000B464046494614F037FE22462B4614F0A6
:104E900009FD019E02460B46002E4DD0DDE902675A
:104EA00032463B4614F046FB52465B4614F0FAFC91
:104EB00032463B4614F03EFB2B46224614F03AFBAA
:104EC000019B013306460F4600F02381019B012B15
:104ED0007BD0019A531C392B4FEA025500F22881EE
:104EE000019A132A40F35581019BC3F57F74033463
:104EF0000022230514F020FB02460B46504659467B
:104F000014F018FB0022664B14F016FB824605EBEA
:104F1000010B5046594605B0BDE8F08F634A9342F5
:104F20001BD9C1F313030343024640F01281002949
:104F3000EFDA00205E490DE05046594614F0B2FC0D
:104F400022462B4614F0F6FA02460B4650465946C6
:104F500014F0F0FA05B0BDE8F08F41A3D3E90023C7
:104F600014F030FF00283FF402AF3FA3D3E9002341
:104F70001046194614F096FCECE74E4A934200F2B4
:104F8000EC8000293AA3D3E9002339DA14F0D4FAEB
:104F900039A7D7E900674FF0FF3380468946019370
:104FA00032463B464046494614F0C4FA02460B4698
:104FB00082468B464046494614F0BCFA32463B4690
:104FC00014F0B8FACDE90201F8E600223A4B504657
:104FD000594614F0D9FE002800F0CC8050465946BE
:104FE00000222E4B14F0A8FA02460B4630463946F2
:104FF00014F0A0FA00224FF0404314F053FCA9E74C
:1050000014F098FA01238046894601931CA7D7E93A
:105010000067C5E714A3D3E9002314F08DFA024614
:105020000B468FE7AFF3008059F3F8C21F6EA5015E
:10503000FE822B654715F73F2DC3096EB7FD8ABE6B
:105040003952E686CACFD03EB7DBAA9E19CE143FAE
:105050008555FE19A0015A3FF41011111111A13FFD
:10506000EF39FAFE422E86409C7500883CE4377E7C
:105070000000E0FE422EE63F763C7935EF39EABD8E
:10508000763C7935EF39EA3D79684340412E8640D8
:105090000000E0BF422ED63FFFFF8F3C0000E03F04
:1050A0000000F03F0000084000001840FFFFEF7FC5
:1050B0000000F0BFB1A2F03F0000D0BF44A3D3E98D
:1050C00000235046594614F0EDFB02460B460020E3
:1050D000414914F031FA14F095FE019014F078FB78
:1050E00037A3D3E9002306460F4614F0DBFB024644
:1050F0000B465046594614F01DFA33A3D3E900235A
:10510000804689463046394614F0CCFB06460F46A9
:1051100046E702460B465046594614F00BFA002269
:105120002D4B14F0BFFB00222B4B14F003FA11E7B8
:1051300052465B4614F0FEF902460B460020274912
:1051400014F0F8F96B1819460022244B14F0F2F908
:1051500000E70B4614F0F0F9FCE61DA3D3E90023A9
:1051600014F0A0FB002C02460B464FF00000AFDA13
:105170001B49AEE732463B465046594614F0DAF931
:1051800002460B4614F0D8F90022144B14F0D4F95F
:10519000E0E64FF4001343FA02F452465B4614F083
:1051A000C9F9C4F17F57002607F5401702460B46A0
:1051B0003046394614F0BEF9A8E600BFAFF30080D0
:1051C0000000E0FE422EE63F763C7935EF39EA3DBD
:1051D000FE822B654715F73F0000E03F0000F03FDF
:1051E0000000E0BF00000000F8B5C1F30A53044618
:1051F0000D460E4617460BBB21F0004603463343CF
:105200001BD0354B002214F04DFB344B9F4204461B
:105210000D4635DBC1F30A530E46363B3B4440F2A4
:10522000FE72934232DC002B11DD26F0FF4626F49D
:10523000E00646EA035520462946F8BD40F2FF72D3
:105240009342EBD102460B4614F076F9F8BD13F108
:10525000350F28DA4CF250339F4222462B460ADDA6
:1052600019A1D1E9000114F0D7F817A3D3E900235D
:1052700014F018FBF8BD16A1D1E9000114F0CCF828
:1052800013A3D3E9002314F00DFBF8BD22462B46EF
:105290000DA1D1E9000114F0BFF80BA3D3E900235D
:1052A00014F000FBF8BD26F0FF4626F4E006363386
:1052B00046EA0355204629460022094B14F0F2FA2B
:1052C000F8BD00BFAFF300809C7500883CE4377EDA
:1052D00059F3F8C21F6EA50100005043B03CFFFF18
:1052E0000000903C10B5054C237833B9044B13B142
:1052F0000448AFF300800123237010BD1005002087
:105300000000000034C5010008B5034B1BB1034980
:105310000348AFF3008008BD000000001405002022
:1053200034C50100154B002B08BF134B9D46A3F558
:10533000803A00218B460F461348144A121A08F08F
:105340002DFE0F4B002B00D098470E4B002B00D0AA
:1053500098470020002104000D000D48002802D0CD
:105360000C48AFF3008014F08DF82000290005F000
:10537000F9F914F073F800BF0000080000000220E3
:10538000000000000000000000040020A80C002025
:10539000000000000000000070B504460E4600F05A
:1053A00047FA88B103681B6B05469847082C0CD058
:1053B000A4F10903012B14D93246214610230D20F4
:1053C000BDE8704004F0B0B870BD2B6828469B6AF9
:1053D00098470228F0DC2B6828465B6A042198472E
:1053E000EAE72B6828469B6A98470528E4DC2B6887
:1053F00028465B6A08219847DEE700BF38B52DEDE7
:10540000028B054600F014FA044640B103681B6B9A
:105410009847032D03D8DFE805F02F363D06BDEC95
:10542000028B002038BD20460CF024FA07EE900ACB
:105430002046F8EEE78A0CF02BFA07EE900A204699
:10544000B8EEE78A0CF032FA68EE087A07EE100A36
:10545000E8EEA87AB8EEC77AE7EE077AF5EE407A7A
:10546000F1EE10FAB1EEE78A1BD4FDEEC87ABDEC7E
:10547000028B17EE900A38BDBDEC028B2046BDE8CA
:1054800038400CF0F7B9BDEC028B2046BDE838403F
:105490000CF0FEB9BDEC028B2046BDE838400CF0A4
:1054A00005BA17EE900A12F0A7FDDEE738B50446FC
:1054B00000F0BEF958B103681B6B0546984744B12C
:1054C000012C04D12846BDE83840FBF73DB9002047
:1054D00038BD2846BDE83840FBF716B910B504467C
:1054E00000F0A6F928B1036821465B6ABDE81040C8
:1054F000184710BD0048704716FCFFFF704700BFFB
:1055000010B5034B036004460BF0B0FF204610BDFE
:10551000F0B9010010B5054B036004460BF0A6FF7F
:10552000204614F0F7FE204610BD00BFF0B9010080
:105530002DE9F041032184B00546512001F0DAFC49
:10554000DFF8E8C2AE4B044604F00F06C4F30317BD
:1055500014F4807408BF6346AA4831463A460BF0FB
:105560000FF9221C18BF012231463B4628460EF097
:10557000B5FB0023AB60A4480BF002F94FF0FF31FC
:10558000032001F0B7FCC0B204F0C2FA4FF0FF31C3
:105590000446022001F0AEFCC0B204F0B9FA002CBF
:1055A0003BD0002839D00146204604F099F8064641
:1055B00000284DD04FF0FF31462001F09BFC3228EF
:1055C00004464ED04BDD382800F0B18068285FD10A
:1055D0004FF0FF31012001F08DFCC0B204F098FAC9
:1055E00080465C2014F09FFE052301934246009400
:1055F00031462B4607460DF0E3FAAF603B6838466C
:10560000DB6A9847A86803681B6B98477F480BF0D4
:10561000B7F8284604B0BDE8F0817D480BF0B0F83B
:105620004FF0FF31192001F065FCC0B204F070FAB0
:105630004FF0FF310446182001F05CFCC0B204F0CA
:1056400067FA0146204604F04BF806460028B1D11F
:1056500070480BF095F8284604B0BDE8F08130287A
:1056600016D14FF0FF31012001F044FCC0B204F02C
:105670004FFA8046502014F056FEA4B20746052388
:1056800001934246009431462B460DF043F8B4E7AF
:1056900001243268CDE900440023576AAB600F2231
:1056A0000DF10F0332213046B847002800F0858005
:1056B0003368CDE900440F225F6A30210DF10F03FA
:1056C0003046B84700284AD03368CDE900440D225F
:1056D0005F6A38210DF10F033046B847002872D0B9
:1056E0003268CDE900440DF10F03576A6821752235
:1056F0003046B847002845D1682147480BF040F8AC
:105700004FF0FF31204601F0F5FBC0B204F000FA83
:1057100080465C2014F007FE05246823CDE90034A0
:10572000424631462B4607460DF04AFA65E74FF0F0
:10573000FF31012001F0DEFBC0B204F0E9F9804640
:10574000502014F0F0FD05230746019342462B46F6
:10575000009431460DF014F9304B3B604DE7302199
:105760002D480BF00DF830244FF0FF31012001F0EF
:10577000C1FBC0B204F0CCF98046502014F0D3FD38
:1057800007467CE726480AF0FBFFAF68002F7FF44E
:1057900035AF4FF0FF31032001F0ACFBC0B204F095
:1057A000B7F930B11F480AF0EBFF284604B0BDE856
:1057B000F0811D480AF0E4FF4DE7322116480AF057
:1057C000DFFF3224D0E7382113480AF0D9FF4FF029
:1057D000FF31204601F08EFBC0B204F099F98046FB
:1057E000502014F0A0FD052438230746CDE90034ED
:1057F00042462B4631460DF0C3F8084B3B60FCE6B1
:1058000068AC010078AC010098AC010058AD010013
:10581000A8AC0100BCAC0100E8AC010030AC010058
:10582000D4AC0100FCAC010038AD010070AC01004B
:1058300038B5114C23680BB1986838BD4FF0FF3173
:10584000012001F057FBC0B204F062F940B10C2016
:1058500014F069FD0546FFF76BFE2560A86838BDAA
:105860004FF0FF31032001F045FBC0B204F050F9C6
:105870000028ECD138BD00BF2C05002008B501F090
:105880006BFCFBF7D5FCBDE8084001F0C5B900BFD3
:1058900008B501F061FCFBF73BFDBDE8084001F0F5
:1058A000BBB900BF08B501F057FC11F06BFEBDE8B5
:1058B000084001F0B1B900BF08B501F04DFC12F08D
:1058C0005DFABDE8084001F0A7B900BF08B501F0D6
:1058D00043FCFBF7BDFCBDE8084001F09DB900BFEB
:1058E00008B501F039FC12F07FF8BDE8084001F07E
:1058F00093B900BF08B501F02FFCFAF745FFBDE8EA
:10590000084001F089B900BF08B501F025FC11F08D
:10591000C1FFBDE8084001F07FB900BF70B5049E2B
:1059200096420C4624DB15466BB9042A19D0022A8C
:1059300002D110F0010310D001462A46204607F09C
:105940009BF9002070BD10440D4410F8013D01F892
:10595000013B8D42F9D1002070BD02880A801846B3
:1059600070BD10F00303E7D102680A60184670BDED
:105970000846002108F012FB4FF0FF3070BD00BF59
:105980000830704740B1002905DB43688B4202DDD7
:105990000844007A70470020704700BF30B10029EA
:1059A00004DB43688B42C4BF40180272704700BFDB
:1059B00040B1002905DB4368994202DA0844007AC5
:1059C00070470020704700BF830704D1030F0CBF4E
:1059D0000120002070470120704700BF30B100292E
:1059E00004DB43689942BCBF40180272704700BF95
:1059F000F8B5002B20DB00291EDB46688E421BDB3E
:105A00005468761AE51AB542A8BF3546002D13DB57
:105A1000824202F108070C4600F108062A4605D02A
:105A2000F918301907F028F90020F8BDF1183819D5
:105A300014F0ACFC0020F8BD4FF0FF30F8BD00BF03
:105A40004068704710B4141E10DB4268A2420DDBA0
:105A500033EA230328BF1346121B08309A4220441E
:105A6000A8BF1A465DF8044B08F098BA5DF8044BDD
:105A7000704700BF10B443688B4200F10804184619
:105A8000A8BF084632EA220128BF19461B1A9942CC
:105A90002044A8BF19465DF8044B00F0B5BE00BF16
:105AA00070B5002BBCBF43689B1A002A0E4620DB52
:105AB00044689918A1421CDC91421ADBCBB136F044
:105AC000004116D05942B14214DAB34212DD083017
:105AD000002E00EB020515DB9C1B2246A919284667
